:020000040800F2
:1000000070040020C500000815110008C90C000884
:1000100000000000000000000000000000000000E0
:10002000000000000000000000000000CD120008E9
:1000300000000000000000005D110008CF12000861
:10004000D700000800000000D7000008D700000813
:10005000D7000008D7000008D7000008D700000824
:1000600000000000D7000008D7000008D7000008F3
:10007000D7000008D7000008D700000800000000E3
:10008000D70000080000000000000000D7000008B2
:1000900000000000D7000008D7000008D7000008C3
:1000A00000000000D700000800000000D700000892
:1000B0000348854600F0ACF8004800479D1300084F
:1000C000700400200448804704480047FEE7FEE72C
:1000D000FEE7FEE7FEE7FEE721130008B100000897
:1000E00030B50B46014600202022012409E00D46D0
:1000F000D5409D4205D31D469540491B2546954058
:1001000040191546521E002DF1DC30BDF0B51FB46C
:100110000646002082B005464024019100901BE075
:10012000019922460F46304600F020F8049A059BBC
:10013000801A994110D310461946224600F058F80B
:10014000361A8F410197224601200021009F00F0BE
:100150004FF838184D4100902046641E0028DFDC1F
:10016000019B00982946324607B0F0BD10B5202A01
:1001700004DB0846203AD040002110BD0B46D34096
:10018000D0402024A21A91400843194610BDD2B293
:1001900001E00270401C491EFBD270470022F6E7C6
:1001A00010B513460A4604461946FFF7F0FF2046ED
:1001B00010BD00004A0009030123090B1B05194368
:1001C000094B10B5520D9A4201DA002010BD064BC2
:1001D00034339A4203DC9A1AFFF7C8FF10BD034973
:1001E0005118884010BD0000FF030000CDFBFFFF49
:1001F00010B5202A04DB0146203A9140002010BDB2
:10020000914020239C1A0346E3401943904010BDBF
:10021000064C0125064E05E0E36807CC2B430C3C59
:1002200098471034B442F7D3FFF746FF2014000874
:1002300040140008704731B500F0B6F8009C054640
:10024000601C00D0641C00F0AFF8401BA042FAD341
:1002500038BD0000F8B500238DE001249C40A44681
:1002600022407DD04C68022C01D0122C0CD1DC082D
:10027000A40027183C6A5D07ED0E0F26AE40B4437C
:100280000E69AE4026433E6205685E000324B4401A
:100290000F79A543BF07BF0FB7402F4307604D68D5
:1002A000012D05D0022D03D0112D01D0122D0ED11C
:1002B0008568CF68A543B7402F4387604768654688
:1002C000AF430D79ED06ED0F9D403D434560C56898
:1002D000A5438C68B4402C43C4604C68E40049D505
:1002E000284CA56901263543A561A4699D083440C1
:1002F0000094254CAD002F19BC689D072E0F0F25CB
:10030000B540AC430925ED06A84201D100250FE018
:100310001E4DA84201D101250AE01D4DA84201D180
:10032000022505E01B4DA84201D1032500E005256B
:10033000B5402543BD60184C25684E689543F603CB
:1003400000D51543256065684E689543B60300D512
:1003500015436560A5684E689543F60202D500E036
:1003600008E01543A560E5684E689543B60200D5E0
:100370001543E5605B1C0A681446DC4000D06CE75E
:10038000F8BD0000001002400000014000040048D9
:1003900000080048000C004800040140002A01D079
:1003A00081617047816270470148006870470000B2
:1003B0000400002002480168491C016070470000E9
:1003C0000400002010B506480168102211430160A6
:1003D000002000F007F800F017F8002010BD000022
:1003E0000020024010B5044600F0BCF87D21C90091
:1003F000FFF776FE00F050FC00222146501E00F070
:1004000017F8002010BD000008B5084881690122D6
:1004100011438161816911400091C26901040A435D
:10042000C261C0690840009008BD00000010024091
:1004300010B500F071FE10BDF8B5054644480E46F3
:100440000068C007C00FB0420AD24148016849089D
:100450004900314301600068C007C00FB0425CD161
:1004600028783C4C800705D56068F0218843A9684E
:10047000084360602878C0073FD06868012813D01F
:100480002168022813D08907002946DA61688908A3
:10049000890001436160FFF787FF6968074601290A
:1004A0000DD0022917D024E021688903ECE78901E7
:1004B000EAE7FFF779FFC11B2748814217D8606838
:1004C0000007800F0128F4D117E0FFF76DFFC11B73
:1004D000214881420BD860680007800F0228F4D1C0
:1004E0000BE0FFF761FFC11B1B48814201D90320CC
:1004F000F8BD60680007800FF3D115480168C9078F
:10050000C90FB1420BD90168490849003143016064
:100510000068C007C00FB04201D00120F8BD2878A4
:10052000400706D56068072109028843E968084347
:10053000606000F01DF86168084A0906090F515C07
:10054000C840074908600020FFF74CFF0020F8BDB5
:100550000020024000100240881300001014000820
:1005600008000020014800687047000008000020D3
:1005700010B512A30FCB88B06C460FC413A30FCBDA
:100580000FC416494A680C20134603401448042B34
:100590000FD0082B0DD193021B0F6C46E45CC96A87
:1005A00004AB0907090F595CD20304D5FFF798FD86
:1005B000604308B010BD0B486043FAE7020304052E
:1005C000060708090A0B0C0D0E0F10100102030498
:1005D00005060708090A0B0C0D0E0F10001002404B
:1005E00000127A0000093D00FEB504460078D04DA7
:1005F000C00747D068680007800F012807D06868E7
:100600000007800F022809D16868C00306D5286852
:10061000800337D5606800287ED033E0012062680F
:100620000004012A11D08100002A01D0052A10D02F
:100630002A6882432A602868884328606068002806
:1006400014D0FFF7B1FE06460CE02968014329608B
:10065000F4E72A680A432A60F7E7FFF7A5FE801B44
:1006600064286FD828688003F7D50BE0FFF79CFE5D
:10067000064604E0FFF798FE801B6428F1D828683E
:100680008003F7D420780126800700283BDA6868C9
:100690000007800F07D068680007800F022809D183
:1006A0006868C00306D42868800715D5E06801286B
:1006B00032D111E0E0680028286815D03043286066
:1006C000FFF772FE074604E0FFF76EFEC01B02282C
:1006D000C7D828688007F7D52868F821884321699A
:1006E000C900084328600EE0400840002860FFF77A
:1006F0005BFE074604E0FFF757FEC01B0228B0D898
:1007000028688007F7D42078000724D5E0690028FE
:10071000686A10D0304300E008E16862FFF744FEE9
:10072000074604E0FFF740FEC01B022899D8686A1C
:100730008007F7D50FE0400840006862FFF734FEFD
:10074000074605E09DE0FFF72FFEC01B022888D872
:10075000686A8007F7D4207804274007002860DA09
:1007600000200190E869C00008D4E969B806014397
:10077000E961E96901400120009101906D4801683B
:10078000C90511D40168821511430160FFF70CFE01
:10079000009005E0FFF708FE0099401A642870D821
:1007A00064480068C005F5D5A06801280AD0002873
:1007B00001D0052810D0286A400840002862286A25
:1007C000B84301E0286A30432862A068002812D0AC
:1007D000FFF7EAFD00900AE0286A38432862F1E753
:1007E000FFF7E2FD0099411A5348814249D8286A2F
:1007F0008007F5D50DE0FFF7D7FD009006E0FFF785
:10080000D3FD0099411A4C4881423AD8286A8007A2
:10081000F5D40198002804D0E9690120000781433C
:10082000E9612078C00635D5606901280CD0401DEB
:10083000686B23D038436863686B40084000686386
:10084000FFF7B2FD064622E0686B38436863686BC9
:1008500030436863FFF7A8FD064604E0FFF7A4FDF8
:10086000801B02285BD8686B8007F7D5686BF8217E
:100870008843A169C900084368630BE0B843686313
:10088000F4E74CE0FFF790FD801B022847D8686B27
:100890008007F7D4206A002846D069680907890FC5
:1008A000022943D0012636060228286805D0B04325
:1008B0002860FFF779FD044633E0B0432860FFF776
:1008C00073FD074604E0FFF76FFDC01B022826D822
:1008D00028688001F7D4E86AE16A0009000108434A
:1008E000E862616AA06A084369683D221204914384
:1008F00008436860286830432860FFF755FD0446C8
:1009000004E0FFF751FD001B022808D82868800189
:10091000F7D509E0FFF748FD001B022801D90320A5
:10092000FEBD28688001F5D40020FEBD0120FEBD7B
:10093000001002400070004088130000F8B5040069
:1009400007D0002625464035A662687F002802D0E1
:1009500005E00120F8BD2E77204600F04BF8022379
:100960006B77206801684022914301600721E068AD
:100970000902884201D9002201E0012212030F2757
:100980003F02B84202D0884200D0A662276B002FF7
:1009900005D1884201D9236301E001202063A168C9
:1009A0006068636908432169194308430123A16909
:1009B0005B0219400843E1690843216A0843A16AC0
:1009C000084321680860616B606AA36908431B0CD7
:1009D0000427E1683B4019430843216810434860FD
:1009E0002068C1697A029143C16126660120687757
:1009F0000020F8BD10B586B0044614216846FFF704
:100A0000CDFB1149206888421CD1104882698114AD
:100A10000A43826182690A400592426949010A4398
:100A20004261406908400590E0200090022001905A
:100A30000021032003900291049109206946C00619
:100A4000FFF708FC06B010BD003001400010024066
:100A5000FFB5044683B00120254640350090287F2D
:100A600000270E4601280FD001202877FFF79CFCB5
:100A70000190687F616801280DD0CA1FFD3A08D136
:100A8000A168002905D102E0022007B0F0BD0428CA
:100A900001D00227FAE0002E7CD005980028FBD078
:100AA00006980028F8D0687F042801D005206877D0
:100AB00000202066059921640699E9800699A9809D
:100AC000A6630699E1870699A187E064206507235C
:100AD000E1681B02994202D8E888012806D92068FB
:100AE0004268012109038A43426005E020684168A9
:100AF000012212031143416020680168490603D4B2
:100B00000168402211430160E1686068994242D95E
:100B1000002802D0E08F012835D121683088C860D4
:100B2000E08F401EE087B61C2DE0009800280ED014
:100B3000E08F00280BD020688168890707D53188AD
:100B4000C160E08F401EE0870020B61C0090E8885E
:100B500000280ED020688168C9070AD0C0680599AE
:100B600008800598801C0590E888401EE8800120D8
:100B700000900C98401C06D0FFF716FC0199411A12
:100B80000C9881426DD2E08F0028CED1E8880028F1
:100B9000CBD16EE079E0002802D0E08F012862D14D
:100BA000E08F012807D921683088C860E08F801E57
:100BB000E087B61C57E0216830780873E08F401E4C
:100BC000E087761C4FE00098002818D0E08F0028BE
:100BD00015D020688168890711D5E18F012906D9D0
:100BE0003188C160E08F801EE087B61C05E0317857
:100BF0000173E08F401EE087761C00200090E8889B
:100C0000002824D020688168C90720D0E9880129FC
:100C100012D9C068059908800598801C0590E8885D
:100C2000801EE880E88801280FD8206841680122EA
:100C300012031143416008E0017B0598017005989B
:100C4000401C0590E888401EE880012000900C9828
:100C5000401C08D0FFF7A8FB0199401A0C99884264
:100C600001D3032712E0E08F0028ACD1E8880028E8
:100C7000A9D12046019A0C9900F071FA002801D000
:100C800020202066206E002800D0012701206877F0
:100C9000002028773846F8E6094910B5401E8842FA
:100CA00001D9012010BD074C60610321081F00F02D
:100CB00033FA0020A06107202061002010BD000051
:100CC000FFFFFF0000E000E0FEE7000010B506496E
:100CD000002008701D2000F0B3F8410849001D20D5
:100CE00000F086F910BD00000000002010B5064895
:100CF000012404701D2000F0A3F8204301461D20AC
:100D000000F076F910BD000000000020F0B51FB41F
:100D100014460546012202212648FFF73FFB012623
:100D200009277602FF06002231463846FFF736FBD8
:100D30003220FFF780FA012231463846FFF72EFBBA
:100D40003220FFF778FA422000F07AF8122802D019
:100D5000002005B0F0BD00F03FF928460199FFF7EB
:100D600029FA00F087F800210E2000F041F9002157
:100D70000F2000F03DF90C2000F062F80321014340
:100D80000C2000F035F90421262000F031F960B282
:100D900000F0FEF80B2000F0D7F8074800F088F8C4
:100DA000039800F0EFF8012000F051F800F01AF974
:100DB0000120CEE70004004848E8010070B506466F
:100DC0000025122000F03CF80446002E06D0FFF764
:100DD0008DFF3146222000F00BF901E0FFF776FF8E
:100DE0002146122000F004F9600617D5A00615D49C
:100DF0001248002141700078002801D0222000E034
:100E0000132000F01DF80546102000F019F80146E7
:100E10000D2000F0EDF800F0E5F80CE0012000F006
:100E20000FF8862807D000210D2000F0E1F8862178
:100E3000012000F0DDF8284670BD00000000002011
:100E400010B54006400E002100F0D8F810BD10B5D6
:100E5000002805D01E20FFF7F3FF0421084304E01B
:100E60001E20FFF7EDFFFB21084001461E2000F089
:100E7000BFF810BD70B5410BC0040C4A0023FFF74A
:100E800045F904460D460904000C0843C1B206208A
:100E900000F0AEF82906200A0843C1B2072000F08E
:100EA000A7F8E1B2082000F0A3F870BD0048E801FF
:100EB0001C4910B5884201D8002428E01A4988420C
:100EC00001D8012423E01949884201D802241EE0F8
:100ED0001749884201D8032419E01649884201D8ED
:100EE000042414E01449884201D805240FE0134972
:100EF000884201D806240AE01149884201D8072413
:100F000005E01049884201D8082400E009241D208A
:100F1000FFF796FF0107090F200101431D2000F094
:100F200067F810BD781E0000A0280000F03C00000B
:100F300040510000127A0000E4A2000024F40000F6
:100F400048E8010090D0030010B50446062813D0ED
:100F5000C321312000F04CF80A21372000F048F876
:100F60001E20FFF76DFF0007000F21010843C1B2EB
:100F70001E2000F03DF810BDC521312000F038F8EA
:100F80000C21EAE710B50146392000F031F810BD18
:100F900070B580250446112809DD3F210B2000F0A3
:100FA00027F887214D2000F023F8641F06E00E2C5F
:100FB00006DD87214D2000F01BF8A41E2C4306E01F
:100FC00084214D2000F014F87020641C0443E1B229
:100FD000092000F00DF870BD10B58021012000F04F
:100FE00007F810BD10B58121012000F001F810BDF7
:100FF00010B58022104300F001F810BDFEB50D4E73
:101000000C460546002202213046FFF7C7F9684624
:1010100005714471FF200090022302AA01A906482D
:10102000FFF716FD012202213046FFF7B7F96846A7
:10103000407AFEBD000400480C000020F0B587B0E7
:1010400014216846FFF7AAF81D48426901214904A6
:101050000A43426142690A400592426949000A43D3
:10106000426140692124084009262401F6060590C2
:10107000002221463046FFF791F9124F002202214B
:101080003846FFF78BF9009400240125019502945E
:10109000694630460394FFF7DDF8022000900320F4
:1010A00003900195029469463846FFF7D3F8A802E9
:1010B0006A4631C269463046FFF7CCF807B0F0BD4A
:1010C000001002400004004810B511480F490160AB
:1010D000FF21053141600021072281601202016178
:1010E000C26001224161520282610162302241628A
:1010F000C26181620722C262016308214163FFF776
:101100001DFC002801D0FFF795F810BD003001400C
:101110000C000020704700008307FF22DB0E9A407E
:101120008907090E994000280BDA0007000F0838DC
:10113000830808489B001818C36993430B43C36195
:101140007047830804489B001B18186890430843A5
:101150001860704700ED00E000E400E07047F8B56B
:101160000F460B4615460092032104460022C90291
:1011700000F01BF82026002812D13B4600228021D7
:101180002046009500F05CF8002809D103213B4679
:10119000002249022046009500F007F8002803D0FD
:1011A000206E304320660320F8BDF8B51D46174673
:1011B0000E4604463DE0032149028E4205D1002F30
:1011C00003D1017B684601700078681C31D0002D86
:1011D00005D0FFF7E9F80699401AA84229D32068FC
:1011E0004168E022914341606068C11FFD390CD124
:1011F0000121A068C903884202D04911884204D164
:10120000206801684022914301600120A16A4003E7
:10121000814207D121680A6882430A6021680A680E
:1012200002430A60012040346077002020770320C9
:10123000F8BD206881683140B942BCD10020F8BDBA
:10124000F8B51D4617460E46044633E0681C31D0FB
:10125000002D05D0FFF7A8F80699401AA84229D317
:1012600020684168E022914341606068C11FFD39F8
:101270000CD10121A068C903884202D049118842DB
:1012800004D1206801684022914301600120A16AD5
:101290004003814207D121680A6882430A602168BD
:1012A0000A6802430A6001204034607700202077FA
:1012B0000320F8BD206881683046884304D00020B0
:1012C000B842C3D10020F8BD0120F9E7704710B53E
:1012D000FFF770F810BD30B591B030216846FEF7C9
:1012E0005DFF00240D94012003900E940225102030
:1012F00009940490009505200F94C0040A900C9462
:1013000008950B946846FFF76FF907200C900E9430
:1013100001210D950F940CA8FFF78EF811B030BD88
:10132000134801680122114301604168114A1140CC
:1013300041600168104A1140016001680122920475
:101340009143016041683F22120491434160C16AA8
:1013500009090901C162016BFF2214329143016343
:10136000416B4908490041630021816070470000DA
:10137000001002400CB8FF08FFFFF6FE02E008C8AC
:10138000121F08C1002AFAD170477047002001E0FF
:1013900001C1121F002AFBD170470000C0B0FFF747
:1013A00011F8FFF798FFFFF749FEFFF78DFE0522C2
:1013B000342390071549FFF7A9FC0A20FEF73BFFED
:1013C0000927FF06012210213846FEF7E7FF6E4687
:1013D0000020FFF7F3FC00280CD01320FFF730FDAE
:1013E0000546002404E00020FFF72AFD3055641C68
:1013F000AC42F8DB68460078002801D0002200E00B
:10140000012210213846FEF7C9FFE1E70ECFB941AE
:1014100000000000000000000102030406070809A4
:1014200040140008000000200C0000007C1300089D
:101430004C1400080C000020640400008C13000809
:0C144000000000000000000000127A0014
:04000005080000B13E
:00000001FF
